:100C5A0048656C6C6F0A004F6B61790A00506561D8
:100C6A0063650A00556E6B6E6F776E0A00000000AE
:070C7A000000000000000073
:030CCE00014400DE
:0C0CB900758920758DFD759850D28E2233
:100C8100120A866010F5993099FDC299740129F90B
:060C9100E43AFA80EB22B8
:060800008B228A238924EB
:1008060078257C007D007BFF7A0C79777E007F0A55
:10081600120A60E4F535F536F537F538AB22AA232A
:10082600A924120A86FF6056C3E5369405E53564A9
:100836008094805049EF642C60100538E5387002CA
:10084600053714242FF8A6078027742F2538F8E4D7
:10085600F6FB7A00792F120AB10536E536700205E5
:10086600351425E02425F8A60608A607E4F537F58D
:100876003874012524F524E43523F523809E742F4E
:100886002538F8E4F6FB7A00792F120AB1E5362509
:10089600E02425F8A60608A60785253985263A8583
:1008A600273B85283C85293D852A3EAF2CAE2BADBE
:1008B6002EAC2DC3E53A94FCE53964809483503917
:1008C600C3E53C94FCE53B64809483502CC3E53E31
:1008D60094FCE53D64809483501FC3EF94FCEE6462
:1008E6008094835014C3ED94FCEC64809483500987
:1008F6007BFF7A0C795A02098CC3E53A94FCE539F8
:10090600648094835037E53C94E8E53B64809483A7
:10091600402BD3E53E94E8E53D64809483401ED3A6
:10092600EF94E8EE648094834013D3ED94E8EC648E
:1009360080948340087BFF7A0C79618049D3E53A3D
:1009460094F2E539648094834036E53C94FCE53BBB
:1009560064809483502AC3E53E94FCE53D6480940C
:1009660083501DEF94F2EE648094834013D3ED948C
:10097600F2EC6480948340087BFF7A0C79678006EA
:090986007BFF7A0C796E120C81E2
:01098F002245
:03002300020BEBE2
:100BEB00C0E0C0F0C083C082C0D075D000C000C0D0
:0D0BFB0001C002C003C004C005C006C00751
:100C0800309834859921C298E521B40A1574452590
:100C180044F876007B007A00794512080075440094
:100C28008015C3E544941D74809480500AAF440530
:070C38004474452FF8A621CA
:100C3F00D007D006D005D004D003D002D001D00009
:0B0C4F00D0D0D082D083D0F0D0E032B3
:090CC500120CB9D2AFD2AC80FED2
:03000000020B5F91
:0C0B5F00787FE4F6D8FD758162020BA6D9
:10099000E709F608DFFA8046E709F208DFFA803E49
:1009A00088828C83E709F0A3DFFA8032E309F60836
:1009B000DFFA8078E309F208DFFA807088828C839E
:1009C000E309F0A3DFFA806489828A83E0A3F60852
:1009D000DFFA805889828A83E0A3F208DFFA804C2C
:1009E00080D280FA80C680D4806980F28033801003
:1009F00080A680EA809A80A880DA80E280CA80336C
:100A000089828A83ECFAE493A3C8C582C8CCC583E3
:100A1000CCF0A3C8C582C8CCC583CCDFE9DEE780B3
:100A20000D89828A83E493A3F608DFF9ECFAA9F032
:100A3000EDFB2289828A83ECFAE0A3C8C582C8CC88
:100A4000C583CCF0A3C8C582C8CCC583CCDFEADEA1
:100A5000E880DB89828A83E493A3F208DFF980CC03
:100A600088F0EF60010E4E60C388F0ED2402B404FC
:100A70000050B9F582EB2402B4040050AF232345A3
:060A800082239009E073DF
:100A8600BB010689828A83E0225002E722BBFE026E
:090A9600E32289828A83E49322A1
:100AB1008B3F8A408941AB3FAA40A941120A86FF78
:100AC100120C97500D74012541F541E43540F54074
:100AD10080E4D200AB3FAA40A941120A86FF642BF1
:100AE1006004EFB42D1BAB3F0541E541AA40700204
:100AF100054014F9120A86642D6003D38001C39264
:100B010000E4F542F543AB3FAA40A941120A86FF32
:100B1100120CAA5036AB3FAA40A941120A86FF33F4
:100B210095E0FEEF24D0FBEE34FFFAAE42AF437CFA
:100B3100007D0A120A9FEF2BF543EE3AF54274014C
:100B41002541F541E43540F54080BB300006AE4219
:0E0B5100AF438009C3E49543FFE49542FE22C2
:100B6B00020CC5E493A3F8E493A34003F68001F2CF
:100B7B0008DFF48029E493A3F85407240CC8C3338B
:100B8B00C4540F4420C8834004F456800146F6DF5A
:100B9B00E4800B0102040810204080900CCEE47E10
:100BAB00019360BCA3FF543F30E509541FFEE4934F
:100BBB00A360010ECF54C025E060A840B8E493A316
:100BCB00FAE493A3F8E493A3C8C582C8CAC583CA41
:100BDB00F0A3C8C582C8CAC583CADFE9DEE780BEF9
:010CD1000022
:100A9F00EF8DF0A4A8F0CF8CF0A428CE8DF0A42E6B
:020AAF00FE2225
:0F0CAA00EFC394304007EF943A50028001C32209
:100C9700EFC394094005EF940E4003BF2003D380B0
:030CA70001C32264
:00000001FF
